{
  "_format": "hh-sol-artifact-1",
  "contractName": "BasicDutchAuction",
  "sourceName": "contracts/BasicDutchAuction.sol",
  "abi": [
    {
      "inputs": [
        {
          "internalType": "uint256",
          "name": "_reservePrice",
          "type": "uint256"
        },
        {
          "internalType": "uint256",
          "name": "_numBlocksAuctionOpen",
          "type": "uint256"
        },
        {
          "internalType": "uint256",
          "name": "_offerPriceDecrement",
          "type": "uint256"
        }
      ],
      "stateMutability": "nonpayable",
      "type": "constructor"
    },
    {
      "inputs": [],
      "name": "bid",
      "outputs": [
        {
          "internalType": "address",
          "name": "",
          "type": "address"
        }
      ],
      "stateMutability": "payable",
      "type": "function"
    },
    {
      "inputs": [],
      "name": "buyer",
      "outputs": [
        {
          "internalType": "address",
          "name": "",
          "type": "address"
        }
      ],
      "stateMutability": "view",
      "type": "function"
    },
    {
      "inputs": [],
      "name": "currentPrice",
      "outputs": [
        {
          "internalType": "uint256",
          "name": "",
          "type": "uint256"
        }
      ],
      "stateMutability": "view",
      "type": "function"
    },
    {
      "inputs": [],
      "name": "initialBlock",
      "outputs": [
        {
          "internalType": "uint256",
          "name": "",
          "type": "uint256"
        }
      ],
      "stateMutability": "view",
      "type": "function"
    },
    {
      "inputs": [],
      "name": "initialPrice",
      "outputs": [
        {
          "internalType": "uint256",
          "name": "",
          "type": "uint256"
        }
      ],
      "stateMutability": "view",
      "type": "function"
    },
    {
      "inputs": [],
      "name": "numBlockAuctionOpen",
      "outputs": [
        {
          "internalType": "uint256",
          "name": "",
          "type": "uint256"
        }
      ],
      "stateMutability": "view",
      "type": "function"
    },
    {
      "inputs": [],
      "name": "offerPriceDecrement",
      "outputs": [
        {
          "internalType": "uint256",
          "name": "",
          "type": "uint256"
        }
      ],
      "stateMutability": "view",
      "type": "function"
    },
    {
      "inputs": [],
      "name": "reservePrice",
      "outputs": [
        {
          "internalType": "uint256",
          "name": "",
          "type": "uint256"
        }
      ],
      "stateMutability": "view",
      "type": "function"
    },
    {
      "inputs": [],
      "name": "seller",
      "outputs": [
        {
          "internalType": "address payable",
          "name": "",
          "type": "address"
        }
      ],
      "stateMutability": "view",
      "type": "function"
    }
  ],
  "bytecode": "0x6101206040526000600160006101000a81548173ffffffffffffffffffffffffffffffffffffffff021916908373ffffffffffffffffffffffffffffffffffffffff1602179055503480156200005457600080fd5b5060405162000ca838038062000ca883398181016040528101906200007a91906200015c565b82608081815250508160a081815250508060c08181525050336000806101000a81548173ffffffffffffffffffffffffffffffffffffffff021916908373ffffffffffffffffffffffffffffffffffffffff1602179055508082620000e09190620001e7565b83620000ed919062000232565b60e0818152505043610100818152505060a051436200010d919062000232565b6002819055505050506200026d565b600080fd5b6000819050919050565b620001368162000121565b81146200014257600080fd5b50565b60008151905062000156816200012b565b92915050565b6000806000606084860312156200017857620001776200011c565b5b6000620001888682870162000145565b93505060206200019b8682870162000145565b9250506040620001ae8682870162000145565b9150509250925092565b7f4e487b7100000000000000000000000000000000000000000000000000000000600052601160045260246000fd5b6000620001f48262000121565b9150620002018362000121565b9250828202620002118162000121565b915082820484148315176200022b576200022a620001b8565b5b5092915050565b60006200023f8262000121565b91506200024c8362000121565b9250828201905080821115620002675762000266620001b8565b5b92915050565b60805160a05160c05160e051610100516109e1620002c76000396000818161053c01526105cd01526000818161051801526106030152600081816105ac0152610633015260006105860152600061065701526109e16000f3fe6080604052600436106100865760003560e01c80637150d8ae116100595780637150d8ae1461012a5780639bebc180146101555780639d1b464a14610180578063d3642a88146101ab578063db2e1eed146101d657610086565b806308551a531461008b5780631998aeef146100b65780631d0806ae146100d45780632cb15864146100ff575b600080fd5b34801561009757600080fd5b506100a0610201565b6040516100ad91906106ba565b60405180910390f35b6100be610225565b6040516100cb91906106f6565b60405180910390f35b3480156100e057600080fd5b506100e9610516565b6040516100f6919061072a565b60405180910390f35b34801561010b57600080fd5b5061011461053a565b604051610121919061072a565b60405180910390f35b34801561013657600080fd5b5061013f61055e565b60405161014c91906106f6565b60405180910390f35b34801561016157600080fd5b5061016a610584565b604051610177919061072a565b60405180910390f35b34801561018c57600080fd5b506101956105a8565b6040516101a2919061072a565b60405180910390f35b3480156101b757600080fd5b506101c0610631565b6040516101cd919061072a565b60405180910390f35b3480156101e257600080fd5b506101eb610655565b6040516101f8919061072a565b60405180910390f35b60008054906101000a900473ffffffffffffffffffffffffffffffffffffffff1681565b60008073ffffffffffffffffffffffffffffffffffffffff16600160009054906101000a900473ffffffffffffffffffffffffffffffffffffffff1673ffffffffffffffffffffffffffffffffffffffff16146102b7576040517f08c379a00000000000000000000000000000000000000000000000000000000081526004016102ae906107a2565b60405180910390fd5b60008054906101000a900473ffffffffffffffffffffffffffffffffffffffff1673ffffffffffffffffffffffffffffffffffffffff163373ffffffffffffffffffffffffffffffffffffffff1603610345576040517f08c379a000000000000000000000000000000000000000000000000000000000815260040161033c9061080e565b60405180910390fd5b6002544310610389576040517f08c379a00000000000000000000000000000000000000000000000000000000081526004016103809061087a565b60405180910390fd5b60006103936105a8565b9050803410156103d8576040517f08c379a00000000000000000000000000000000000000000000000000000000081526004016103cf906108e6565b60405180910390fd5b33600160006101000a81548173ffffffffffffffffffffffffffffffffffffffff021916908373ffffffffffffffffffffffffffffffffffffffff160217905550600081346104279190610935565b9050600081111561047a573373ffffffffffffffffffffffffffffffffffffffff166108fc829081150290604051600060405180830381858888f19350505050158015610478573d6000803e3d6000fd5b505b60008054906101000a900473ffffffffffffffffffffffffffffffffffffffff1673ffffffffffffffffffffffffffffffffffffffff166108fc82346104c09190610935565b9081150290604051600060405180830381858888f193505050501580156104eb573d6000803e3d6000fd5b50600160009054906101000a900473ffffffffffffffffffffffffffffffffffffffff169250505090565b7f000000000000000000000000000000000000000000000000000000000000000081565b7f000000000000000000000000000000000000000000000000000000000000000081565b600160009054906101000a900473ffffffffffffffffffffffffffffffffffffffff1681565b7f000000000000000000000000000000000000000000000000000000000000000081565b60007f00000000000000000000000000000000000000000000000000000000000000007f0000000000000000000000000000000000000000000000000000000000000000436105f79190610935565b6106019190610969565b7f000000000000000000000000000000000000000000000000000000000000000061062c9190610935565b905090565b7f000000000000000000000000000000000000000000000000000000000000000081565b7f000000000000000000000000000000000000000000000000000000000000000081565b600073ffffffffffffffffffffffffffffffffffffffff82169050919050565b60006106a482610679565b9050919050565b6106b481610699565b82525050565b60006020820190506106cf60008301846106ab565b92915050565b60006106e082610679565b9050919050565b6106f0816106d5565b82525050565b600060208201905061070b60008301846106e7565b92915050565b6000819050919050565b61072481610711565b82525050565b600060208201905061073f600083018461071b565b92915050565b600082825260208201905092915050565b7f41756374696f6e20436f6e636c75646564000000000000000000000000000000600082015250565b600061078c601183610745565b915061079782610756565b602082019050919050565b600060208201905081810360008301526107bb8161077f565b9050919050565b7f53656c6c65727320617265206e6f7420616c6c6f77656420746f206275790000600082015250565b60006107f8601e83610745565b9150610803826107c2565b602082019050919050565b60006020820190508181036000830152610827816107eb565b9050919050565b7f41756374696f6e20436c6f736564000000000000000000000000000000000000600082015250565b6000610864600e83610745565b915061086f8261082e565b602082019050919050565b6000602082019050818103600083015261089381610857565b9050919050565b7f496e73756666696369656e742056616c75650000000000000000000000000000600082015250565b60006108d0601283610745565b91506108db8261089a565b602082019050919050565b600060208201905081810360008301526108ff816108c3565b9050919050565b7f4e487b7100000000000000000000000000000000000000000000000000000000600052601160045260246000fd5b600061094082610711565b915061094b83610711565b925082820390508181111561096357610962610906565b5b92915050565b600061097482610711565b915061097f83610711565b925082820261098d81610711565b915082820484148315176109a4576109a3610906565b5b509291505056fea2646970667358221220596fad0e5171c13df12215c69678471f97517a084dc2b258283687996f954d4664736f6c63430008110033",
  "linkReferences": {},
  "deployedLinkReferences": {}
}